{
  "contractName": "RepoTest",
  "abi": [
    {
      "constant": true,
      "inputs": [
        {
          "name": "",
          "type": "address"
        }
      ],
      "name": "balances",
      "outputs": [
        {
          "name": "",
          "type": "uint256"
        }
      ],
      "payable": false,
      "stateMutability": "view",
      "type": "function",
      "signature": "0x27e235e3"
    },
    {
      "constant": true,
      "inputs": [],
      "name": "repoStars",
      "outputs": [
        {
          "name": "",
          "type": "string"
        }
      ],
      "payable": false,
      "stateMutability": "view",
      "type": "function",
      "signature": "0xf3441c08"
    },
    {
      "inputs": [],
      "payable": true,
      "stateMutability": "payable",
      "type": "constructor",
      "signature": "constructor"
    },
    {
      "payable": true,
      "stateMutability": "payable",
      "type": "fallback"
    },
    {
      "anonymous": false,
      "inputs": [
        {
          "indexed": false,
          "name": "nextStep",
          "type": "string"
        }
      ],
      "name": "LogConstructorInitiated",
      "type": "event",
      "signature": "0x11a3fca63f87bd67d7f9f72b744acc8be2193705e7a734ac3a773d35d259e87b"
    },
    {
      "anonymous": false,
      "inputs": [
        {
          "indexed": false,
          "name": "stars",
          "type": "string"
        }
      ],
      "name": "LogStarsUpdated",
      "type": "event",
      "signature": "0xcdf34dd4f4e194b750c25fdf0f0bd9908d7ec68c234a55ceeb9558f1fb2a0be8"
    },
    {
      "anonymous": false,
      "inputs": [
        {
          "indexed": false,
          "name": "description",
          "type": "string"
        }
      ],
      "name": "LogNewOraclizeQuery",
      "type": "event",
      "signature": "0x621c2856e3b87f81235f8ac8a22bbb40a0142961960710d00b2b6c380902b57e"
    },
    {
      "constant": false,
      "inputs": [
        {
          "name": "myid",
          "type": "bytes32"
        },
        {
          "name": "result",
          "type": "string"
        }
      ],
      "name": "__callback",
      "outputs": [],
      "payable": false,
      "stateMutability": "nonpayable",
      "type": "function",
      "signature": "0x27dc297e"
    },
    {
      "constant": false,
      "inputs": [
        {
          "name": "_myid",
          "type": "bytes32"
        },
        {
          "name": "_result",
          "type": "string"
        },
        {
          "name": "_proof",
          "type": "bytes"
        }
      ],
      "name": "__callback",
      "outputs": [],
      "payable": false,
      "stateMutability": "nonpayable",
      "type": "function",
      "signature": "0x38bbfa50"
    },
    {
      "constant": false,
      "inputs": [],
      "name": "updateStars",
      "outputs": [],
      "payable": true,
      "stateMutability": "payable",
      "type": "function",
      "signature": "0x1734f612"
    }
  ],
  "bytecode": "0x60806040527f11a3fca63f87bd67d7f9f72b744acc8be2193705e7a734ac3a773d35d259e87b60405180806020018281038252604b8152602001807f436f6e7374727563746f722077617320696e697469617465642e2043616c6c2081526020017f27757064617465507269636528292720746f2073656e6420746865204f72616381526020017f6c697a652051756572792e00000000000000000000000000000000000000000081525060600191505060405180910390a1611a6e806100c76000396000f3fe608060405260043610610067576000357c0100000000000000000000000000000000000000000000000000000000900480631734f6121461006957806327dc297e1461007357806327e235e31461014557806338bbfa50146101aa578063f3441c0814610313575b005b6100716103a3565b005b34801561007f57600080fd5b506101436004803603604081101561009657600080fd5b8101908080359060200190929190803590602001906401000000008111156100bd57600080fd5b8201836020820111156100cf57600080fd5b803590602001918460018302840111640100000000831117156100f157600080fd5b91908080601f016020809104026020016040519081016040528093929190818152602001838380828437600081840152601f19601f82011690508083019250505050505050919291929050505061060b565b005b34801561015157600080fd5b506101946004803603602081101561016857600080fd5b81019080803573ffffffffffffffffffffffffffffffffffffffff169060200190929190505050610703565b6040518082815260200191505060405180910390f35b3480156101b657600080fd5b50610311600480360360608110156101cd57600080fd5b8101908080359060200190929190803590602001906401000000008111156101f457600080fd5b82018360208201111561020657600080fd5b8035906020019184600183028401116401000000008311171561022857600080fd5b91908080601f016020809104026020016040519081016040528093929190818152602001838380828437600081840152601f19601f8201169050808301925050505050505091929192908035906020019064010000000081111561028b57600080fd5b82018360208201111561029d57600080fd5b803590602001918460018302840111640100000000831117156102bf57600080fd5b91908080601f016020809104026020016040519081016040528093929190818152602001838380828437600081840152601f19601f82011690508083019250505050505050919291929050505061071b565b005b34801561031f57600080fd5b50610328610720565b6040518080602001828103825283818151815260200191508051906020019080838360005b8381101561036857808201518184015260208101905061034d565b50505050905090810190601f1680156103955780820380516001836020036101000a031916815260200191505b509250505060405180910390f35b3073ffffffffffffffffffffffffffffffffffffffff16316103f96040805190810160405280600381526020017f55524c00000000000000000000000000000000000000000000000000000000008152506107be565b11156104b8577f621c2856e3b87f81235f8ac8a22bbb40a0142961960710d00b2b6c380902b57e60405180806020018281038252604b8152602001807f4f7261636c697a6520717565727920776173204e4f542073656e742c20706c6581526020017f6173652061646420736f6d652045544820746f20636f76657220666f7220746881526020017f652071756572792066656500000000000000000000000000000000000000000081525060600191505060405180910390a1610609565b7f621c2856e3b87f81235f8ac8a22bbb40a0142961960710d00b2b6c380902b57e6040518080602001828103825260358152602001807f4f7261636c697a65207175657279207761732073656e742c207374616e64696e81526020017f6720627920666f722074686520616e737765722e2e000000000000000000000081525060400191505060405180910390a16106076040805190810160405280600381526020017f55524c0000000000000000000000000000000000000000000000000000000000815250608060405190810160405280604881526020017f6a736f6e2868747470733a2f2f6170692e6769746875622e636f6d2f7265706f81526020017f732f4e656d626f4b69642f73696d706c652d64617070292e7374617267617a6581526020017f72735f636f756e74000000000000000000000000000000000000000000000000815250610ba5565b505b565b61061361115e565b73ffffffffffffffffffffffffffffffffffffffff163373ffffffffffffffffffffffffffffffffffffffff1614151561064c57600080fd5b806005908051906020019061066292919061199d565b507fcdf34dd4f4e194b750c25fdf0f0bd9908d7ec68c234a55ceeb9558f1fb2a0be8816040518080602001828103825283818151815260200191508051906020019080838360005b838110156106c55780820151818401526020810190506106aa565b50505050905090810190601f1680156106f25780820380516001836020036101000a031916815260200191505b509250505060405180910390a15050565b60066020528060005260406000206000915090505481565b505050565b60058054600181600116156101000203166002900480601f0160208091040260200160405190810160405280929190818152602001828054600181600116156101000203166002900480156107b65780601f1061078b576101008083540402835291602001916107b6565b820191906000526020600020905b81548152906001019060200180831161079957829003601f168201915b505050505081565b60008073ffffffffffffffffffffffffffffffffffffffff16600160009054906101000a900473ffffffffffffffffffffffffffffffffffffffff1673ffffffffffffffffffffffffffffffffffffffff16148061084657506000610844600160009054906101000a900473ffffffffffffffffffffffffffffffffffffffff166114d1565b145b156108575761085560006114dc565b505b600160009054906101000a900473ffffffffffffffffffffffffffffffffffffffff1673ffffffffffffffffffffffffffffffffffffffff166338cc48316040518163ffffffff167c0100000000000000000000000000000000000000000000000000000000028152600401602060405180830381600087803b1580156108dd57600080fd5b505af11580156108f1573d6000803e3d6000fd5b505050506040513d602081101561090757600080fd5b810190808051906020019092919050505073ffffffffffffffffffffffffffffffffffffffff166000809054906101000a900473ffffffffffffffffffffffffffffffffffffffff1673ffffffffffffffffffffffffffffffffffffffff16141515610a6e57600160009054906101000a900473ffffffffffffffffffffffffffffffffffffffff1673ffffffffffffffffffffffffffffffffffffffff166338cc48316040518163ffffffff167c0100000000000000000000000000000000000000000000000000000000028152600401602060405180830381600087803b1580156109f357600080fd5b505af1158015610a07573d6000803e3d6000fd5b505050506040513d6020811015610a1d57600080fd5b81019080805190602001909291905050506000806101000a81548173ffffffffffffffffffffffffffffffffffffffff021916908373ffffffffffffffffffffffffffffffffffffffff1602179055505b6000809054906101000a900473ffffffffffffffffffffffffffffffffffffffff1673ffffffffffffffffffffffffffffffffffffffff1663524f3889836040518263ffffffff167c01000000000000000000000000000000000000000000000000000000000281526004018080602001828103825283818151815260200191508051906020019080838360005b83811015610b17578082015181840152602081019050610afc565b50505050905090810190601f168015610b445780820380516001836020036101000a031916815260200191505b5092505050602060405180830381600087803b158015610b6357600080fd5b505af1158015610b77573d6000803e3d6000fd5b505050506040513d6020811015610b8d57600080fd5b81019080805190602001909291905050509050919050565b60008073ffffffffffffffffffffffffffffffffffffffff16600160009054906101000a900473ffffffffffffffffffffffffffffffffffffffff1673ffffffffffffffffffffffffffffffffffffffff161480610c2d57506000610c2b600160009054906101000a900473ffffffffffffffffffffffffffffffffffffffff166114d1565b145b15610c3e57610c3c60006114dc565b505b600160009054906101000a900473ffffffffffffffffffffffffffffffffffffffff1673ffffffffffffffffffffffffffffffffffffffff166338cc48316040518163ffffffff167c0100000000000000000000000000000000000000000000000000000000028152600401602060405180830381600087803b158015610cc457600080fd5b505af1158015610cd8573d6000803e3d6000fd5b505050506040513d6020811015610cee57600080fd5b810190808051906020019092919050505073ffffffffffffffffffffffffffffffffffffffff166000809054906101000a900473ffffffffffffffffffffffffffffffffffffffff1673ffffffffffffffffffffffffffffffffffffffff16141515610e5557600160009054906101000a900473ffffffffffffffffffffffffffffffffffffffff1673ffffffffffffffffffffffffffffffffffffffff166338cc48316040518163ffffffff167c0100000000000000000000000000000000000000000000000000000000028152600401602060405180830381600087803b158015610dda57600080fd5b505af1158015610dee573d6000803e3d6000fd5b505050506040513d6020811015610e0457600080fd5b81019080805190602001909291905050506000806101000a81548173ffffffffffffffffffffffffffffffffffffffff021916908373ffffffffffffffffffffffffffffffffffffffff1602179055505b60008060009054906101000a900473ffffffffffffffffffffffffffffffffffffffff1673ffffffffffffffffffffffffffffffffffffffff1663524f3889856040518263ffffffff167c01000000000000000000000000000000000000000000000000000000000281526004018080602001828103825283818151815260200191508051906020019080838360005b83811015610f00578082015181840152602081019050610ee5565b50505050905090810190601f168015610f2d5780820380516001836020036101000a031916815260200191505b5092505050602060405180830381600087803b158015610f4c57600080fd5b505af1158015610f60573d6000803e3d6000fd5b505050506040513d6020811015610f7657600080fd5b8101908080519060200190929190505050905062030d403a02670de0b6b3a764000001811115610fad576000600102915050611158565b6000809054906101000a900473ffffffffffffffffffffffffffffffffffffffff1673ffffffffffffffffffffffffffffffffffffffff1663adf59f9982600087876040518563ffffffff167c0100000000000000000000000000000000000000000000000000000000028152600401808481526020018060200180602001838103835285818151815260200191508051906020019080838360005b83811015611064578082015181840152602081019050611049565b50505050905090810190601f1680156110915780820380516001836020036101000a031916815260200191505b50838103825284818151815260200191508051906020019080838360005b838110156110ca5780820151818401526020810190506110af565b50505050905090810190601f1680156110f75780820380516001836020036101000a031916815260200191505b50955050505050506020604051808303818588803b15801561111857600080fd5b505af115801561112c573d6000803e3d6000fd5b50505050506040513d602081101561114357600080fd5b81019080805190602001909291905050509150505b92915050565b60008073ffffffffffffffffffffffffffffffffffffffff16600160009054906101000a900473ffffffffffffffffffffffffffffffffffffffff1673ffffffffffffffffffffffffffffffffffffffff1614806111e6575060006111e4600160009054906101000a900473ffffffffffffffffffffffffffffffffffffffff166114d1565b145b156111f7576111f560006114dc565b505b600160009054906101000a900473ffffffffffffffffffffffffffffffffffffffff1673ffffffffffffffffffffffffffffffffffffffff166338cc48316040518163ffffffff167c0100000000000000000000000000000000000000000000000000000000028152600401602060405180830381600087803b15801561127d57600080fd5b505af1158015611291573d6000803e3d6000fd5b505050506040513d60208110156112a757600080fd5b810190808051906020019092919050505073ffffffffffffffffffffffffffffffffffffffff166000809054906101000a900473ffffffffffffffffffffffffffffffffffffffff1673ffffffffffffffffffffffffffffffffffffffff1614151561140e57600160009054906101000a900473ffffffffffffffffffffffffffffffffffffffff1673ffffffffffffffffffffffffffffffffffffffff166338cc48316040518163ffffffff167c0100000000000000000000000000000000000000000000000000000000028152600401602060405180830381600087803b15801561139357600080fd5b505af11580156113a7573d6000803e3d6000fd5b505050506040513d60208110156113bd57600080fd5b81019080805190602001909291905050506000806101000a81548173ffffffffffffffffffffffffffffffffffffffff021916908373ffffffffffffffffffffffffffffffffffffffff1602179055505b6000809054906101000a900473ffffffffffffffffffffffffffffffffffffffff1673ffffffffffffffffffffffffffffffffffffffff1663c281d19e6040518163ffffffff167c010000000000000000000000000000000000000000000000000000000002815260040160206040518083038186803b15801561149157600080fd5b505afa1580156114a5573d6000803e3d6000fd5b505050506040513d60208110156114bb57600080fd5b8101908080519060200190929190505050905090565b6000813b9050919050565b60006114e66114ed565b9050919050565b60008061150d731d3b2638a7cc9f2cb3d298a3da7a90b67e5506ed6114d1565b11156115af57731d3b2638a7cc9f2cb3d298a3da7a90b67e5506ed600160006101000a81548173ffffffffffffffffffffffffffffffffffffffff021916908373ffffffffffffffffffffffffffffffffffffffff1602179055506115a66040805190810160405280600b81526020017f6574685f6d61696e6e6574000000000000000000000000000000000000000000815250611983565b60019050611980565b60006115ce73c03a2615d5efaf5f49f60b7bb6583eaec212fdf16114d1565b11156116705773c03a2615d5efaf5f49f60b7bb6583eaec212fdf1600160006101000a81548173ffffffffffffffffffffffffffffffffffffffff021916908373ffffffffffffffffffffffffffffffffffffffff1602179055506116676040805190810160405280600c81526020017f6574685f726f707374656e330000000000000000000000000000000000000000815250611983565b60019050611980565b600061168f73b7a07bcf2ba2f2703b24c0691b5278999c59ac7e6114d1565b11156117315773b7a07bcf2ba2f2703b24c0691b5278999c59ac7e600160006101000a81548173ffffffffffffffffffffffffffffffffffffffff021916908373ffffffffffffffffffffffffffffffffffffffff1602179055506117286040805190810160405280600981526020017f6574685f6b6f76616e0000000000000000000000000000000000000000000000815250611983565b60019050611980565b600061175073146500cfd35b22e4a392fe0adc06de1a1368ed486114d1565b11156117f25773146500cfd35b22e4a392fe0adc06de1a1368ed48600160006101000a81548173ffffffffffffffffffffffffffffffffffffffff021916908373ffffffffffffffffffffffffffffffffffffffff1602179055506117e96040805190810160405280600b81526020017f6574685f72696e6b656279000000000000000000000000000000000000000000815250611983565b60019050611980565b6000611811736f485c8bf6fc43ea212e93bbf8ce046c7f1cb4756114d1565b111561187557736f485c8bf6fc43ea212e93bbf8ce046c7f1cb475600160006101000a81548173ffffffffffffffffffffffffffffffffffffffff021916908373ffffffffffffffffffffffffffffffffffffffff16021790555060019050611980565b60006118947320e12a1f859b3feae5fb2a0a32c18f5a65555bbf6114d1565b11156118f8577320e12a1f859b3feae5fb2a0a32c18f5a65555bbf600160006101000a81548173ffffffffffffffffffffffffffffffffffffffff021916908373ffffffffffffffffffffffffffffffffffffffff16021790555060019050611980565b60006119177351efaf4c8b3c9afbd5ab9f4bbc82784ab6ef8faa6114d1565b111561197b577351efaf4c8b3c9afbd5ab9f4bbc82784ab6ef8faa600160006101000a81548173ffffffffffffffffffffffffffffffffffffffff021916908373ffffffffffffffffffffffffffffffffffffffff16021790555060019050611980565b600090505b90565b806002908051906020019061199992919061199d565b5050565b828054600181600116156101000203166002900490600052602060002090601f016020900481019282601f106119de57805160ff1916838001178555611a0c565b82800160010185558215611a0c579182015b82811115611a0b5782518255916020019190600101906119f0565b5b509050611a199190611a1d565b5090565b611a3f91905b80821115611a3b576000816000905550600101611a23565b5090565b9056fea165627a7a72305820814f874a839d4345084a5c827081a080c17f4e01354257aeeb1d29fff570238c0029",
  "source": "pragma solidity ^0.5.0;\n\n\nimport \"./UsingOraclize.sol\";\n\ncontract RepoTest is usingOraclize {\n\n   string public repoStars;\n\n\n   mapping(address => uint) public balances;\n   event LogConstructorInitiated(string nextStep);\n   event LogStarsUpdated(string stars);\n   event LogNewOraclizeQuery(string description);\n\n   constructor() payable public {\n       emit LogConstructorInitiated(\"Constructor was initiated. Call 'updatePrice()' to send the Oraclize Query.\");\n   }\n\n   function __callback(bytes32 myid, string memory result) public {\n       if (msg.sender != oraclize_cbAddress()) revert();\n       repoStars = result;\n       emit LogStarsUpdated(result);\n   }\n\n   function updateStars() payable public {\n       if (oraclize_getPrice(\"URL\") > address(this).balance) {\n           emit LogNewOraclizeQuery(\"Oraclize query was NOT sent, please add some ETH to cover for the query fee\");\n       } else {\n           emit LogNewOraclizeQuery(\"Oraclize query was sent, standing by for the answer..\");\n           oraclize_query(\"URL\", \"json(https://api.github.com/repos/NemboKid/simple-dapp).stargazers_count\");\n       }\n   }\n\n   function()external payable {\n   }\n}\n",
  "sourcePath": "/Users/filipsundgren/Desktop/Tester/truffle_react/contracts/RepoTest.sol",
  "compiler": {
    "name": "solc",
    "version": "0.5.1+commit.c8a2cb62.Emscripten.clang"
  },
  "schemaVersion": "3.0.0-beta.1",
  "updatedAt": "2019-01-27T17:14:33.118Z",
  "devdoc": {
    "methods": {}
  },
  "userdoc": {
    "methods": {}
  }
}